{
  "_format": "hh-sol-artifact-1",
  "contractName": "Create",
  "sourceName": "contracts/VotingContract.sol",
  "abi": [
    {
      "inputs": [],
      "stateMutability": "nonpayable",
      "type": "constructor"
    },
    {
      "anonymous": false,
      "inputs": [
        {
          "indexed": true,
          "internalType": "uint256",
          "name": "candidateId",
          "type": "uint256"
        },
        {
          "indexed": false,
          "internalType": "string",
          "name": "age",
          "type": "string"
        },
        {
          "indexed": false,
          "internalType": "string",
          "name": "name",
          "type": "string"
        },
        {
          "indexed": false,
          "internalType": "string",
          "name": "image",
          "type": "string"
        },
        {
          "indexed": false,
          "internalType": "uint256",
          "name": "voteCount",
          "type": "uint256"
        },
        {
          "indexed": false,
          "internalType": "address",
          "name": "_address",
          "type": "address"
        },
        {
          "indexed": false,
          "internalType": "string",
          "name": "ipfs",
          "type": "string"
        }
      ],
      "name": "candidateCreate",
      "type": "event"
    },
    {
      "anonymous": false,
      "inputs": [
        {
          "indexed": true,
          "internalType": "uint256",
          "name": "voter_voterId",
          "type": "uint256"
        },
        {
          "indexed": false,
          "internalType": "string",
          "name": "voter_name",
          "type": "string"
        },
        {
          "indexed": false,
          "internalType": "string",
          "name": "voter_image",
          "type": "string"
        },
        {
          "indexed": false,
          "internalType": "address",
          "name": "voter_address",
          "type": "address"
        },
        {
          "indexed": false,
          "internalType": "uint256",
          "name": "voter_allowed",
          "type": "uint256"
        },
        {
          "indexed": false,
          "internalType": "bool",
          "name": "voter_voted",
          "type": "bool"
        },
        {
          "indexed": false,
          "internalType": "uint256",
          "name": "voter_vote",
          "type": "uint256"
        },
        {
          "indexed": false,
          "internalType": "string",
          "name": "voter_ipfs",
          "type": "string"
        }
      ],
      "name": "voterCreated",
      "type": "event"
    },
    {
      "inputs": [],
      "name": "_candidateId",
      "outputs": [
        {
          "internalType": "uint256",
          "name": "_value",
          "type": "uint256"
        }
      ],
      "stateMutability": "view",
      "type": "function"
    },
    {
      "inputs": [],
      "name": "_voterId",
      "outputs": [
        {
          "internalType": "uint256",
          "name": "_value",
          "type": "uint256"
        }
      ],
      "stateMutability": "view",
      "type": "function"
    },
    {
      "inputs": [
        {
          "internalType": "uint256",
          "name": "",
          "type": "uint256"
        }
      ],
      "name": "candidateAddress",
      "outputs": [
        {
          "internalType": "address",
          "name": "",
          "type": "address"
        }
      ],
      "stateMutability": "view",
      "type": "function"
    },
    {
      "inputs": [
        {
          "internalType": "address",
          "name": "",
          "type": "address"
        }
      ],
      "name": "candidates",
      "outputs": [
        {
          "internalType": "uint256",
          "name": "candidateId",
          "type": "uint256"
        },
        {
          "internalType": "string",
          "name": "age",
          "type": "string"
        },
        {
          "internalType": "string",
          "name": "name",
          "type": "string"
        },
        {
          "internalType": "string",
          "name": "image",
          "type": "string"
        },
        {
          "internalType": "uint256",
          "name": "voteCount",
          "type": "uint256"
        },
        {
          "internalType": "address",
          "name": "_address",
          "type": "address"
        },
        {
          "internalType": "string",
          "name": "ipfs",
          "type": "string"
        }
      ],
      "stateMutability": "view",
      "type": "function"
    },
    {
      "inputs": [],
      "name": "getCandidate",
      "outputs": [
        {
          "internalType": "address[]",
          "name": "",
          "type": "address[]"
        }
      ],
      "stateMutability": "view",
      "type": "function"
    },
    {
      "inputs": [],
      "name": "getCandidateLength",
      "outputs": [
        {
          "internalType": "uint256",
          "name": "",
          "type": "uint256"
        }
      ],
      "stateMutability": "view",
      "type": "function"
    },
    {
      "inputs": [
        {
          "internalType": "address",
          "name": "_address",
          "type": "address"
        }
      ],
      "name": "getCandidatedata",
      "outputs": [
        {
          "internalType": "string",
          "name": "",
          "type": "string"
        },
        {
          "internalType": "string",
          "name": "",
          "type": "string"
        },
        {
          "internalType": "uint256",
          "name": "",
          "type": "uint256"
        },
        {
          "internalType": "string",
          "name": "",
          "type": "string"
        },
        {
          "internalType": "uint256",
          "name": "",
          "type": "uint256"
        },
        {
          "internalType": "string",
          "name": "",
          "type": "string"
        },
        {
          "internalType": "address",
          "name": "",
          "type": "address"
        }
      ],
      "stateMutability": "view",
      "type": "function"
    },
    {
      "inputs": [],
      "name": "getVotedList",
      "outputs": [
        {
          "internalType": "address[]",
          "name": "",
          "type": "address[]"
        }
      ],
      "stateMutability": "view",
      "type": "function"
    },
    {
      "inputs": [],
      "name": "getVoterLength",
      "outputs": [
        {
          "internalType": "uint256",
          "name": "",
          "type": "uint256"
        }
      ],
      "stateMutability": "view",
      "type": "function"
    },
    {
      "inputs": [],
      "name": "getVoterList",
      "outputs": [
        {
          "internalType": "address[]",
          "name": "",
          "type": "address[]"
        }
      ],
      "stateMutability": "view",
      "type": "function"
    },
    {
      "inputs": [
        {
          "internalType": "address",
          "name": "_address",
          "type": "address"
        }
      ],
      "name": "getVoterdata",
      "outputs": [
        {
          "internalType": "uint256",
          "name": "",
          "type": "uint256"
        },
        {
          "internalType": "string",
          "name": "",
          "type": "string"
        },
        {
          "internalType": "string",
          "name": "",
          "type": "string"
        },
        {
          "internalType": "address",
          "name": "",
          "type": "address"
        },
        {
          "internalType": "string",
          "name": "",
          "type": "string"
        },
        {
          "internalType": "uint256",
          "name": "",
          "type": "uint256"
        },
        {
          "internalType": "bool",
          "name": "",
          "type": "bool"
        }
      ],
      "stateMutability": "view",
      "type": "function"
    },
    {
      "inputs": [
        {
          "internalType": "address",
          "name": "_address",
          "type": "address"
        },
        {
          "internalType": "string",
          "name": "_age",
          "type": "string"
        },
        {
          "internalType": "string",
          "name": "_name",
          "type": "string"
        },
        {
          "internalType": "string",
          "name": "_image",
          "type": "string"
        },
        {
          "internalType": "string",
          "name": "_ipfs",
          "type": "string"
        }
      ],
      "name": "setCandidate",
      "outputs": [],
      "stateMutability": "nonpayable",
      "type": "function"
    },
    {
      "inputs": [
        {
          "internalType": "address",
          "name": "_candidateAddress",
          "type": "address"
        },
        {
          "internalType": "uint256",
          "name": "_candidateVoteId",
          "type": "uint256"
        }
      ],
      "name": "vote",
      "outputs": [],
      "stateMutability": "nonpayable",
      "type": "function"
    },
    {
      "inputs": [
        {
          "internalType": "uint256",
          "name": "",
          "type": "uint256"
        }
      ],
      "name": "votedVoters",
      "outputs": [
        {
          "internalType": "address",
          "name": "",
          "type": "address"
        }
      ],
      "stateMutability": "view",
      "type": "function"
    },
    {
      "inputs": [
        {
          "internalType": "address",
          "name": "_address",
          "type": "address"
        },
        {
          "internalType": "string",
          "name": "_name",
          "type": "string"
        },
        {
          "internalType": "string",
          "name": "_image",
          "type": "string"
        },
        {
          "internalType": "string",
          "name": "_ipfs",
          "type": "string"
        }
      ],
      "name": "voterRight",
      "outputs": [],
      "stateMutability": "nonpayable",
      "type": "function"
    },
    {
      "inputs": [
        {
          "internalType": "address",
          "name": "",
          "type": "address"
        }
      ],
      "name": "voters",
      "outputs": [
        {
          "internalType": "uint256",
          "name": "voter_voterId",
          "type": "uint256"
        },
        {
          "internalType": "string",
          "name": "voter_name",
          "type": "string"
        },
        {
          "internalType": "string",
          "name": "voter_image",
          "type": "string"
        },
        {
          "internalType": "address",
          "name": "voter_address",
          "type": "address"
        },
        {
          "internalType": "uint256",
          "name": "voter_allowed",
          "type": "uint256"
        },
        {
          "internalType": "bool",
          "name": "voter_voted",
          "type": "bool"
        },
        {
          "internalType": "uint256",
          "name": "voter_vote",
          "type": "uint256"
        },
        {
          "internalType": "string",
          "name": "voter_ipfs",
          "type": "string"
        }
      ],
      "stateMutability": "view",
      "type": "function"
    },
    {
      "inputs": [
        {
          "internalType": "uint256",
          "name": "",
          "type": "uint256"
        }
      ],
      "name": "votersAddress",
      "outputs": [
        {
          "internalType": "address",
          "name": "",
          "type": "address"
        }
      ],
      "stateMutability": "view",
      "type": "function"
    },
    {
      "inputs": [],
      "name": "votingOrganizer",
      "outputs": [
        {
          "internalType": "address",
          "name": "",
          "type": "address"
        }
      ],
      "stateMutability": "view",
      "type": "function"
    }
  ],
  "bytecode": "0x608060405234801561001057600080fd5b5033600260006101000a81548173ffffffffffffffffffffffffffffffffffffffff021916908373ffffffffffffffffffffffffffffffffffffffff1602179055506127ce806100616000396000f3fe608060405234801561001057600080fd5b50600436106101165760003560e01c80638ab66a90116100a2578063b63c82ca11610071578063b63c82ca14610304578063b9be31521461033a578063c5036fd414610358578063c91ec7121461038e578063f7522a83146103aa57610116565b80638ab66a901461025b578063a3ec138d14610291578063a7388967146102c8578063b28d92ae146102e657610116565b806343242daa116100e957806343242daa146101a35780635cc48aa7146101d35780635f74bbde146101f157806370218b851461020d5780637831ffb31461022b57610116565b80630361419e1461011b57806305ad45a4146101375780633970afa9146101555780633a88251a14610173575b600080fd5b61013560048036038101906101309190611b7b565b6103c8565b005b61013f610640565b60405161014c9190611c4f565b60405180910390f35b61015d61064d565b60405161016a9190611d28565b60405180910390f35b61018d60048036038101906101889190611d76565b6106db565b60405161019a9190611db2565b60405180910390f35b6101bd60048036038101906101b89190611d76565b61071a565b6040516101ca9190611db2565b60405180910390f35b6101db610759565b6040516101e89190611db2565b60405180910390f35b61020b60048036038101906102069190611dcd565b61077f565b005b610215610946565b6040516102229190611d28565b60405180910390f35b61024560048036038101906102409190611d76565b6109d4565b6040516102529190611db2565b60405180910390f35b61027560048036038101906102709190611e0d565b610a13565b6040516102889796959493929190611eb9565b60405180910390f35b6102ab60048036038101906102a69190611e0d565b610c95565b6040516102bf989796959493929190611f5f565b60405180910390f35b6102d0610ea2565b6040516102dd9190611c4f565b60405180910390f35b6102ee610eae565b6040516102fb9190611d28565b60405180910390f35b61031e60048036038101906103199190611e0d565b610f3c565b6040516103319796959493929190611ff2565b60405180910390f35b610342611383565b60405161034f9190611c4f565b60405180910390f35b610372600480360381019061036d9190611e0d565b61138f565b604051610385979695949392919061207d565b60405180910390f35b6103a860048036038101906103a39190612101565b611757565b005b6103b2611992565b6040516103bf9190611c4f565b60405180910390f35b3373ffffffffffffffffffffffffffffffffffffffff16600260009054906101000a900473ffffffffffffffffffffffffffffffffffffffff1673ffffffffffffffffffffffffffffffffffffffff1614610458576040517f08c379a000000000000000000000000000000000000000000000000000000000815260040161044f9061225e565b60405180910390fd5b610462600061199f565b600061046e60006119b5565b90506000600760008773ffffffffffffffffffffffffffffffffffffffff1673ffffffffffffffffffffffffffffffffffffffff168152602001908152602001600020905060008160040154146104c457600080fd5b60018160040181905550848160010190816104df919061248a565b50838160020190816104f1919061248a565b50858160030160006101000a81548173ffffffffffffffffffffffffffffffffffffffff021916908373ffffffffffffffffffffffffffffffffffffffff1602179055508181600001819055506103e8816006018190555060008160050160006101000a81548160ff02191690831515021790555082816007019081610577919061248a565b506004869080600181540180825580915050600190039060005260206000200160009091909190916101000a81548173ffffffffffffffffffffffffffffffffffffffff021916908373ffffffffffffffffffffffffffffffffffffffff160217905550817fa82760a4fb77b1af9728c15d96987c3f10b4f156d752048393e8518ae42a4a6e86868985600401548660050160009054906101000a900460ff1687600601548a604051610630979695949392919061255c565b60405180910390a2505050505050565b6000600480549050905090565b606060058054806020026020016040519081016040528092919081815260200182805480156106d157602002820191906000526020600020905b8160009054906101000a900473ffffffffffffffffffffffffffffffffffffffff1673ffffffffffffffffffffffffffffffffffffffff1681526020019060010190808311610687575b5050505050905090565b600381815481106106eb57600080fd5b906000526020600020016000915054906101000a900473ffffffffffffffffffffffffffffffffffffffff1681565b6004818154811061072a57600080fd5b906000526020600020016000915054906101000a900473ffffffffffffffffffffffffffffffffffffffff1681565b600260009054906101000a900473ffffffffffffffffffffffffffffffffffffffff1681565b6000600760003373ffffffffffffffffffffffffffffffffffffffff1673ffffffffffffffffffffffffffffffffffffffff16815260200190815260200160002090508060050160009054906101000a900460ff1615610814576040517f08c379a000000000000000000000000000000000000000000000000000000000815260040161080b9061262c565b60405180910390fd5b600081600401540361085b576040517f08c379a000000000000000000000000000000000000000000000000000000000815260040161085290612698565b60405180910390fd5b60018160050160006101000a81548160ff0219169083151502179055508181600601819055506005339080600181540180825580915050600190039060005260206000200160009091909190916101000a81548173ffffffffffffffffffffffffffffffffffffffff021916908373ffffffffffffffffffffffffffffffffffffffff1602179055508060040154600660008573ffffffffffffffffffffffffffffffffffffffff1673ffffffffffffffffffffffffffffffffffffffff168152602001908152602001600020600401600082825461093a91906126e7565b92505081905550505050565b606060038054806020026020016040519081016040528092919081815260200182805480156109ca57602002820191906000526020600020905b8160009054906101000a900473ffffffffffffffffffffffffffffffffffffffff1673ffffffffffffffffffffffffffffffffffffffff1681526020019060010190808311610980575b5050505050905090565b600581815481106109e457600080fd5b906000526020600020016000915054906101000a900473ffffffffffffffffffffffffffffffffffffffff1681565b6006602052806000526040600020600091509050806000015490806001018054610a3c906122ad565b80601f0160208091040260200160405190810160405280929190818152602001828054610a68906122ad565b8015610ab55780601f10610a8a57610100808354040283529160200191610ab5565b820191906000526020600020905b815481529060010190602001808311610a9857829003601f168201915b505050505090806002018054610aca906122ad565b80601f0160208091040260200160405190810160405280929190818152602001828054610af6906122ad565b8015610b435780601f10610b1857610100808354040283529160200191610b43565b820191906000526020600020905b815481529060010190602001808311610b2657829003601f168201915b505050505090806003018054610b58906122ad565b80601f0160208091040260200160405190810160405280929190818152602001828054610b84906122ad565b8015610bd15780601f10610ba657610100808354040283529160200191610bd1565b820191906000526020600020905b815481529060010190602001808311610bb457829003601f168201915b5050505050908060040154908060050160009054906101000a900473ffffffffffffffffffffffffffffffffffffffff1690806006018054610c12906122ad565b80601f0160208091040260200160405190810160405280929190818152602001828054610c3e906122ad565b8015610c8b5780601f10610c6057610100808354040283529160200191610c8b565b820191906000526020600020905b815481529060010190602001808311610c6e57829003601f168201915b5050505050905087565b6007602052806000526040600020600091509050806000015490806001018054610cbe906122ad565b80601f0160208091040260200160405190810160405280929190818152602001828054610cea906122ad565b8015610d375780601f10610d0c57610100808354040283529160200191610d37565b820191906000526020600020905b815481529060010190602001808311610d1a57829003601f168201915b505050505090806002018054610d4c906122ad565b80601f0160208091040260200160405190810160405280929190818152602001828054610d78906122ad565b8015610dc55780601f10610d9a57610100808354040283529160200191610dc5565b820191906000526020600020905b815481529060010190602001808311610da857829003601f168201915b5050505050908060030160009054906101000a900473ffffffffffffffffffffffffffffffffffffffff16908060040154908060050160009054906101000a900460ff1690806006015490806007018054610e1f906122ad565b80601f0160208091040260200160405190810160405280929190818152602001828054610e4b906122ad565b8015610e985780601f10610e6d57610100808354040283529160200191610e98565b820191906000526020600020905b815481529060010190602001808311610e7b57829003601f168201915b5050505050905088565b60018060000154905081565b60606004805480602002602001604051908101604052809291908181526020018280548015610f3257602002820191906000526020600020905b8160009054906101000a900473ffffffffffffffffffffffffffffffffffffffff1673ffffffffffffffffffffffffffffffffffffffff1681526020019060010190808311610ee8575b5050505050905090565b60608060006060600060606000600660008973ffffffffffffffffffffffffffffffffffffffff1673ffffffffffffffffffffffffffffffffffffffff168152602001908152602001600020600101600660008a73ffffffffffffffffffffffffffffffffffffffff1673ffffffffffffffffffffffffffffffffffffffff168152602001908152602001600020600201600660008b73ffffffffffffffffffffffffffffffffffffffff1673ffffffffffffffffffffffffffffffffffffffff16815260200190815260200160002060000154600660008c73ffffffffffffffffffffffffffffffffffffffff1673ffffffffffffffffffffffffffffffffffffffff168152602001908152602001600020600301600660008d73ffffffffffffffffffffffffffffffffffffffff1673ffffffffffffffffffffffffffffffffffffffff16815260200190815260200160002060040154600660008e73ffffffffffffffffffffffffffffffffffffffff1673ffffffffffffffffffffffffffffffffffffffff168152602001908152602001600020600601600660008f73ffffffffffffffffffffffffffffffffffffffff1673ffffffffffffffffffffffffffffffffffffffff16815260200190815260200160002060050160009054906101000a900473ffffffffffffffffffffffffffffffffffffffff16868054611146906122ad565b80601f0160208091040260200160405190810160405280929190818152602001828054611172906122ad565b80156111bf5780601f10611194576101008083540402835291602001916111bf565b820191906000526020600020905b8154815290600101906020018083116111a257829003601f168201915b505050505096508580546111d2906122ad565b80601f01602080910402602001604051908101604052809291908181526020018280546111fe906122ad565b801561124b5780601f106112205761010080835404028352916020019161124b565b820191906000526020600020905b81548152906001019060200180831161122e57829003601f168201915b5050505050955083805461125e906122ad565b80601f016020809104026020016040519081016040528092919081815260200182805461128a906122ad565b80156112d75780601f106112ac576101008083540402835291602001916112d7565b820191906000526020600020905b8154815290600101906020018083116112ba57829003601f168201915b505050505093508180546112ea906122ad565b80601f0160208091040260200160405190810160405280929190818152602001828054611316906122ad565b80156113635780601f1061133857610100808354040283529160200191611363565b820191906000526020600020905b81548152906001019060200180831161134657829003601f168201915b505050505091509650965096509650965096509650919395979092949650565b60008060000154905081565b600060608060006060600080600760008973ffffffffffffffffffffffffffffffffffffffff1673ffffffffffffffffffffffffffffffffffffffff16815260200190815260200160002060000154600760008a73ffffffffffffffffffffffffffffffffffffffff1673ffffffffffffffffffffffffffffffffffffffff168152602001908152602001600020600101600760008b73ffffffffffffffffffffffffffffffffffffffff1673ffffffffffffffffffffffffffffffffffffffff168152602001908152602001600020600201600760008c73ffffffffffffffffffffffffffffffffffffffff1673ffffffffffffffffffffffffffffffffffffffff16815260200190815260200160002060030160009054906101000a900473ffffffffffffffffffffffffffffffffffffffff16600760008d73ffffffffffffffffffffffffffffffffffffffff1673ffffffffffffffffffffffffffffffffffffffff168152602001908152602001600020600701600760008e73ffffffffffffffffffffffffffffffffffffffff1673ffffffffffffffffffffffffffffffffffffffff16815260200190815260200160002060040154600760008f73ffffffffffffffffffffffffffffffffffffffff1673ffffffffffffffffffffffffffffffffffffffff16815260200190815260200160002060050160009054906101000a900460ff168580546115a6906122ad565b80601f01602080910402602001604051908101604052809291908181526020018280546115d2906122ad565b801561161f5780601f106115f45761010080835404028352916020019161161f565b820191906000526020600020905b81548152906001019060200180831161160257829003601f168201915b50505050509550848054611632906122ad565b80601f016020809104026020016040519081016040528092919081815260200182805461165e906122ad565b80156116ab5780601f10611680576101008083540402835291602001916116ab565b820191906000526020600020905b81548152906001019060200180831161168e57829003601f168201915b505050505094508280546116be906122ad565b80601f01602080910402602001604051908101604052809291908181526020018280546116ea906122ad565b80156117375780601f1061170c57610100808354040283529160200191611737565b820191906000526020600020905b81548152906001019060200180831161171a57829003601f168201915b505050505092509650965096509650965096509650919395979092949650565b3373ffffffffffffffffffffffffffffffffffffffff16600260009054906101000a900473ffffffffffffffffffffffffffffffffffffffff1673ffffffffffffffffffffffffffffffffffffffff16146117e7576040517f08c379a00000000000000000000000000000000000000000000000000000000081526004016117de9061225e565b60405180910390fd5b6117f1600161199f565b60006117fd60016119b5565b90506000600660008873ffffffffffffffffffffffffffffffffffffffff1673ffffffffffffffffffffffffffffffffffffffff168152602001908152602001600020905085816001019081611853919061248a565b5084816002019081611865919061248a565b5081816000018190555083816003019081611880919061248a565b5060008160040181905550868160050160006101000a81548173ffffffffffffffffffffffffffffffffffffffff021916908373ffffffffffffffffffffffffffffffffffffffff160217905550828160060190816118df919061248a565b506003879080600181540180825580915050600190039060005260206000200160009091909190916101000a81548173ffffffffffffffffffffffffffffffffffffffff021916908373ffffffffffffffffffffffffffffffffffffffff160217905550817f9c3377caaad8cf5294b4cace40440155609c39f917095c885c7e0eb22ebb506387878785600401548c896040516119819695949392919061271b565b60405180910390a250505050505050565b6000600380549050905090565b6001816000016000828254019250508190555050565b600081600001549050919050565b6000604051905090565b600080fd5b600080fd5b600073ffffffffffffffffffffffffffffffffffffffff82169050919050565b6000611a02826119d7565b9050919050565b611a12816119f7565b8114611a1d57600080fd5b50565b600081359050611a2f81611a09565b92915050565b600080fd5b600080fd5b6000601f19601f8301169050919050565b7f4e487b7100000000000000000000000000000000000000000000000000000000600052604160045260246000fd5b611a8882611a3f565b810181811067ffffffffffffffff82111715611aa757611aa6611a50565b5b80604052505050565b6000611aba6119c3565b9050611ac68282611a7f565b919050565b600067ffffffffffffffff821115611ae657611ae5611a50565b5b611aef82611a3f565b9050602081019050919050565b82818337600083830152505050565b6000611b1e611b1984611acb565b611ab0565b905082815260208101848484011115611b3a57611b39611a3a565b5b611b45848285611afc565b509392505050565b600082601f830112611b6257611b61611a35565b5b8135611b72848260208601611b0b565b91505092915050565b60008060008060808587031215611b9557611b946119cd565b5b6000611ba387828801611a20565b945050602085013567ffffffffffffffff811115611bc457611bc36119d2565b5b611bd087828801611b4d565b935050604085013567ffffffffffffffff811115611bf157611bf06119d2565b5b611bfd87828801611b4d565b925050606085013567ffffffffffffffff811115611c1e57611c1d6119d2565b5b611c2a87828801611b4d565b91505092959194509250565b6000819050919050565b611c4981611c36565b82525050565b6000602082019050611c646000830184611c40565b92915050565b600081519050919050565b600082825260208201905092915050565b6000819050602082019050919050565b611c9f816119f7565b82525050565b6000611cb18383611c96565b60208301905092915050565b6000602082019050919050565b6000611cd582611c6a565b611cdf8185611c75565b9350611cea83611c86565b8060005b83811015611d1b578151611d028882611ca5565b9750611d0d83611cbd565b925050600181019050611cee565b5085935050505092915050565b60006020820190508181036000830152611d428184611cca565b905092915050565b611d5381611c36565b8114611d5e57600080fd5b50565b600081359050611d7081611d4a565b92915050565b600060208284031215611d8c57611d8b6119cd565b5b6000611d9a84828501611d61565b91505092915050565b611dac816119f7565b82525050565b6000602082019050611dc76000830184611da3565b92915050565b60008060408385031215611de457611de36119cd565b5b6000611df285828601611a20565b9250506020611e0385828601611d61565b9150509250929050565b600060208284031215611e2357611e226119cd565b5b6000611e3184828501611a20565b91505092915050565b600081519050919050565b600082825260208201905092915050565b60005b83811015611e74578082015181840152602081019050611e59565b60008484015250505050565b6000611e8b82611e3a565b611e958185611e45565b9350611ea5818560208601611e56565b611eae81611a3f565b840191505092915050565b600060e082019050611ece600083018a611c40565b8181036020830152611ee08189611e80565b90508181036040830152611ef48188611e80565b90508181036060830152611f088187611e80565b9050611f176080830186611c40565b611f2460a0830185611da3565b81810360c0830152611f368184611e80565b905098975050505050505050565b60008115159050919050565b611f5981611f44565b82525050565b600061010082019050611f75600083018b611c40565b8181036020830152611f87818a611e80565b90508181036040830152611f9b8189611e80565b9050611faa6060830188611da3565b611fb76080830187611c40565b611fc460a0830186611f50565b611fd160c0830185611c40565b81810360e0830152611fe38184611e80565b90509998505050505050505050565b600060e082019050818103600083015261200c818a611e80565b905081810360208301526120208189611e80565b905061202f6040830188611c40565b81810360608301526120418187611e80565b90506120506080830186611c40565b81810360a08301526120628185611e80565b905061207160c0830184611da3565b98975050505050505050565b600060e082019050612092600083018a611c40565b81810360208301526120a48189611e80565b905081810360408301526120b88188611e80565b90506120c76060830187611da3565b81810360808301526120d98186611e80565b90506120e860a0830185611c40565b6120f560c0830184611f50565b98975050505050505050565b600080600080600060a0868803121561211d5761211c6119cd565b5b600061212b88828901611a20565b955050602086013567ffffffffffffffff81111561214c5761214b6119d2565b5b61215888828901611b4d565b945050604086013567ffffffffffffffff811115612179576121786119d2565b5b61218588828901611b4d565b935050606086013567ffffffffffffffff8111156121a6576121a56119d2565b5b6121b288828901611b4d565b925050608086013567ffffffffffffffff8111156121d3576121d26119d2565b5b6121df88828901611b4d565b9150509295509295909350565b7f4f6e6c79206f7267616e697a65722063616e206372656174652063616e64696460008201527f6174650000000000000000000000000000000000000000000000000000000000602082015250565b6000612248602383611e45565b9150612253826121ec565b604082019050919050565b600060208201905081810360008301526122778161223b565b9050919050565b7f4e487b7100000000000000000000000000000000000000000000000000000000600052602260045260246000fd5b600060028204905060018216806122c557607f821691505b6020821081036122d8576122d761227e565b5b50919050565b60008190508160005260206000209050919050565b60006020601f8301049050919050565b600082821b905092915050565b6000600883026123407fffffffffffffffffffffffffffffffffffffffffffffffffffffffffffffffff82612303565b61234a8683612303565b95508019841693508086168417925050509392505050565b6000819050919050565b600061238761238261237d84611c36565b612362565b611c36565b9050919050565b6000819050919050565b6123a18361236c565b6123b56123ad8261238e565b848454612310565b825550505050565b600090565b6123ca6123bd565b6123d5818484612398565b505050565b5b818110156123f9576123ee6000826123c2565b6001810190506123db565b5050565b601f82111561243e5761240f816122de565b612418846122f3565b81016020851015612427578190505b61243b612433856122f3565b8301826123da565b50505b505050565b600082821c905092915050565b600061246160001984600802612443565b1980831691505092915050565b600061247a8383612450565b9150826002028217905092915050565b61249382611e3a565b67ffffffffffffffff8111156124ac576124ab611a50565b5b6124b682546122ad565b6124c18282856123fd565b600060209050601f8311600181146124f457600084156124e2578287015190505b6124ec858261246e565b865550612554565b601f198416612502866122de565b60005b8281101561252a57848901518255600182019150602085019450602081019050612505565b868310156125475784890151612543601f891682612450565b8355505b6001600288020188555050505b505050505050565b600060e0820190508181036000830152612576818a611e80565b9050818103602083015261258a8189611e80565b90506125996040830188611da3565b6125a66060830187611c40565b6125b36080830186611f50565b6125c060a0830185611c40565b81810360c08301526125d28184611e80565b905098975050505050505050565b7f596f75206861766520616c726561647920766f74656400000000000000000000600082015250565b6000612616601683611e45565b9150612621826125e0565b602082019050919050565b6000602082019050818103600083015261264581612609565b9050919050565b7f596f752068617665206e6f20726967687420746f20766f746500000000000000600082015250565b6000612682601983611e45565b915061268d8261264c565b602082019050919050565b600060208201905081810360008301526126b181612675565b9050919050565b7f4e487b7100000000000000000000000000000000000000000000000000000000600052601160045260246000fd5b60006126f282611c36565b91506126fd83611c36565b9250828201905080821115612715576127146126b8565b5b92915050565b600060c08201905081810360008301526127358189611e80565b905081810360208301526127498188611e80565b9050818103604083015261275d8187611e80565b905061276c6060830186611c40565b6127796080830185611da3565b81810360a083015261278b8184611e80565b905097965050505050505056fea26469706673582212200f759fec0f82f9ea0eedbcc484f75f0162858dad90d15dafa6158c75f4a2a5e064736f6c63430008110033",
  "linkReferences": {},
  "deployedLinkReferences": {}
}